:0E0000000C944B000C9400000C9400000C9427
:10000E0000000C9400000C9400000C9400000C9462
:10001E0000000C9400000C9400000C9400000C9452
:10002E0000000C9400000C9478000C9400000C94CA
:10003E00C2000C9400000C9400000C9400000C9470
:10004E0000000C9400001027E80364000A00010071
:10005E000010000110000100000000000000000070
:10006E00000000002564000001002D4E414E0049A5
:10007E004E4600000100020066000A0004006800FF
:10008E000100700276000000F894EE27ECBBF1E060
:10009E00FBBFEBBFE5BF8DE0A2E0BB27ED938A95DA
:1000AE00E9F780E098E0A0E6ED930197E9F7E2E842
:1000BE00F0E085919591009761F0A591B59105902D
:1000CE001590BF01F00105900D920197E1F7FB012C
:1000DE00F0CFEFE5EDBFE8E0EEBFC0E6D2E00C9466
:1000EE0002010A921A92FA926A937A938A939A93D7
:1000FE00AA93BA93EA93FA93EFB7EA931A930A93F1
:10010E001BB10CB1E12FEC7189F4E92D9394F0E061
:10011E00E05AFD4F0083E8E0E91509F49924B39401
:10012E00E8E0EB1519F4BB24689420F811D04E2E9C
:10013E0009911991E991EFBFF991E991B991A991BD
:10014E009991899179916991F990199009901895E1
:10015E001A93BB20F1F3E82D8394F0E0E05AFD4FA3
:10016E001081E8E0E81509F48824F894BA9478949C
:10017E00E12F19910895EA93FA93EFB7EA93CC2001
:10018E0061F0CA94ED2DD394F0E0E859FD4FE08173
:10019E00ECB9E8E0ED1509F4DD24E991EFBFF99132
:1001AE00E9911895AA93E8E0EC15E9F3F894CC20C0
:1001BE0011F45D990DC0EA2DA394F0E0E859FD4FBE
:1001CE00A881A083E8E0EA1509F4AA24C39402C02A
:1001DE00E881ECB978940DC0AA93E881E06CE7B998
:1001EE0083E08A95F1F7369A349BFECF349AE4B1C8
:1001FE00F5B121960895E0E0EABBEBBBEFEFE7BB6C
:10020E00E0E0E8BBE4BBE5BBE1BBE2BBE3BFE2BFC2
:10021E00ECBFEFBDEEBDEDBDECBDE7BDE6BDEBBD8C
:10022E00EABDE9BDE8BDE2BDE5BDE4BDE3BDE9BFA4
:10023E00E5BFE4BFEBB9E8EDEAB9E6E8E0BDE0E022
:10024E00E0BDECE0E9B9E0E8E8B9E0ECE7B9E3E8F5
:10025E00E6B9E0E0E0BFEDB9E6BF7894A0E0BCDF20
:10026E003F01E2E7F0E0FA93EA93F3010E941E03E6
:10027E00662777270E944C0384E067D12696552483
:10028E00451400F10E94EA02E130A0E0FA0711F4F1
:10029E00E9E0E8BB0E94EA02E230A0E0FA0711F4BE
:1002AE00E5E0E8BB0E94EA02E330A0E0FA0711F4B1
:1002BE00E6E0E8BB0E94EA02309711F4EAE0E8BB00
:1002CE005394DECFCBCFFFCFBA93AA93AA816ADF26
:1002DE00A881B981ED91FD913196FE93EE9323960F
:1002EE000895BA93AA9326970E94510310E0AC8505
:1002FE00BD85E0E0F0E0ED93FC93EA89FB89319651
:10030E00EA8BFB8B3197E4912E2FE03009F415C167
:10031E00E12FE03039F4253211F411E002C00E94D1
:10032E00F1020AC1E130A9F4253219F40E94F1025A
:10033E0002C112E040E000E02D3211F401E0FCC0F9
:10034E002B3211F44BE2F8C0203211F440E2F4C02B
:10035E0002C0E23039F450E013E0203311F40068AB
:10036E00EBC003C0E33009F0E7C0203310F02A33AE
:10037E0008F007C0AAE05A9F502DE22FE0535E0FFF
:10038E00DBC0E22FE33649F40E94F802E889F989CE
:10039E00A481AA930E94FE02CEC0E33741F40E94CC
:1003AE00F8020E9404030E94D1021E2F0AC0E037F9
:1003BE0061F40E94F8020E9404030E94DD021E2FC7
:1003CE00086002600F7730E034C0E43611F0E93691
:1003DE0011F4046002C0E53731F4E4E5F0E0EE8399
:1003EE00FF8315E00CC0E83511F4086003C0E83750
:1003FE0009F0A1C0EEE5F0E0EE83FF8314E002FF0A
:10040E0014C00E94F8020E940E03AB85AA233AF490
:10041E00EA85FB850E941A03EA87FB874DE240308E
:10042E0011F01F5F01C00B7F04C00E94F8020E94F2
:10043E000E0300FD11C0151778F407FF08C002FF68
:10044E0004C00B7F242F115001C020E301C020E215
:10045E000E94F1025150EFCF312F01FF17C0303003
:10046E00A1F003FF06C0EE81FF812591EE83FF838D
:10047E0005C0AE81BF812D91AE83BF830E94F10274
:10048E00503009F051503150EACF4BC020E3EE818D
:10049E00FF810E944803E887F987EE81FF8132963B
:1004AE00EE83FF83E885F985AA85BB85AE17BF0766
:1004BE0050F02F5FA885B985EA85FB85EA1BFB0BFB
:1004CE00EA87FB87EFCF2A3328F003FF02C0295FAC
:1004DE0001C0295D04FD1AC0213320F4A885B98519
:1004EE00119709F409C0531710F000FF01C013C093
:1004FE0020E207FF0BC020E3006102FF07C00B7F65
:10050E004A930E94FE02503009F051500E94F102AF
:10051E00503009F051503150A885B985129708F026
:10052E00B5CF00FF08C0503031F05150E0E2EA93F1
:10053E000E94FE02F8CF10E0E0CEAC85BD850E9491
:10054E0044030E94580364960895FF92F82E26974E
:10055E001A930A93DE0114960E9416038D01E0E0B1
:10056E00EC83ED83EE83EF83DE0118960E94160373
:10057E000E944403FA93EA931A930A93EBE6F1E08E
:10058E00FA93EA93DE011896ACDE1981088128965B
:10059E00FF900895BA93AA93A991B991EE27FF27D8
:1005AE006D91662311F03196FBCF0895BA93AA93FD
:1005BE00AA27BB27E991F9910590002011F0119619
:1005CE00FBCFFD010895A52DBB27E4E0F0E00E94CE
:1005DE00360308952A93AD85BE85EF85F889099572
:1005EE000895E889F9893497E88BF98B0895AD85DC
:1005FE00BE85EF85F88909950895A889B98914965D
:10060E000E944403EE83FF83AE81BF810895A889C3
:10061E00B98914960E944403EA87FB870895002443
:10062E00AF0DB01D0895F195E195F0400895F69542
:10063E00E795F695E79508950024112490E1AA0F09
:10064E00BB1F001C111C0E1A1F0A18F40E0E1F1EC3
:10065E0001C0A1609A9599F7FD01D0010895E89423
:10066E00B7FF04C0A095B09511966894F7FDDBDF37
:10067E00E3DFFD010EF4D7DF0895ED91FC911197A4
:10068E0008950590F491E02D08957A936A93FA9364
:10069E00EA9308955A934A933A932A931A930A9394
:1006AE0008955D814C813B812A81198108810895CD
:00000001FF
