:100000000C9434000C9400000C9400000C9400003C
:100010000C9400000C9400000C9400000C94000060
:100020000C9400000C9400000C9400000C946100EF
:100030000C9400000C9400000C9400000C94000040
:100040000C9400000C9400000C9400000C94000030
:100050000C94000000000905060A0100020054008B
:100060000400600256000000F894EE27ECBBF1E0BB
:10007000FBBFEBBFE5BF8DE0A2E0BB27ED938A9508
:10008000E9F780E098E0A0E6ED930197E9F7EAE56B
:10009000F0E085919591009761F0A591B59105905B
:1000A0001590BF01F00105900D920197E1F7FB015A
:1000B000F0CFEFE5EDBFE8E0EEBFC0E6D2E00C9494
:1000C0009A00AA93BA93EA93FA93EFB7EA93E3E814
:1000D000E2BFF30131963F01A89B02C0A89801C07E
:1000E000A89AE4E0F0E0E615F705CCF4A99B02C07D
:1000F000A99801C0A99A6624772420FE10C0A0E622
:10010000B2E0A40DB51DEC91E8BBF20131962F01D0
:10011000E4E0F0E0E415F50511F4442455249A993F
:1001200002C0689420F8E991EFBFF991E991B99183
:10013000A9911895E3E0E3BFE3E8E2BFE0E0ECBF9C
:10014000E1E0E9BFEFE0E7BBE3E0E4BB7894FFCF99
:00000001FF
