:080000000C942A000C9400008E
:100008000C9400000C9400000C9400000C94000068
:100018000C9400000C9400000C9400000C94000058
:100028000C9400000C9400000C9400000C94000048
:100038000C9400000C9400000C9400000C94000038
:100048000C9400000C9400000C940000F894EE2727
:10005800ECBBF1E0FBBFEBBFE5BF8DE0A2E0BB2747
:10006800ED938A95E9F780E094E0A0E6ED93019797
:10007800E9F7EFE5EDBFE4E0EEBFC0E6D1E00C94B0
:100088005300AA93E881E7B985E88A95F1F7369A8B
:10009800349BFECF349AE4B1F5B12196089500E07F
:1000A80010E0E0E0EABBEBBBE7BBE8BBEFEFE4BB8B
:1000B800E0E0E5BBEFEFE1BBE0E0E2BBE1EAEFBD8A
:1000C800EBE0EEBDE0E0EDBDECBDE7BDE6BDEBBDB0
:1000D800EABDE9BDE8BDE2BDE5BDE4BDE3BDE9BFFC
:1000E800E5BFE4BFE0E8E8B9E0E0E7B9E6E8E6B98B
:1000F800E0E0E0BF74D0E0E0EABDE8BD01E010E078
:10010800A6E072D010F075D009F00AC09098919AC4
:100118009298939A73D0AE9A75D0AE9800E010E09A
:10012800A5E062D010F065D009F00AC058D0EDE71C
:10013800EABDEDE2E8BDAD9A65D0AD9800E010E00B
:10014800A4E052D010F055D009F00AC048D0EDE72D
:10015800EABDE0E5E8BDAC9A55D0AC9800E010E007
:10016800A3E042D010F045D009F007C038D046D0FF
:10017800AB9A48D0AB9800E010E0A2E035D010F080
:1001880038D009F00AC02BD0E0E5EABDEDE7E8BDBC
:10019800AA9A38D0AA9800E010E0A1E025D010F083
:1001A80028D009F00AC01BD0EDE2EABDEDE7E8BDB2
:1001B800A99A28D0A99800E010E0A0E015D010F086
:1001C80018D009F00AC0909A9198929A939816D0EC
:1001D800A89A18D0A89800E010E090CFFFCF909A86
:1001E80091989298939A08954CDFE53FA1E0FA0719
:1001F8000895E1E0F0E0E017F1070895EDE7EABDC2
:10020800E8BD0895A4E6B0E00C940A01109639F010
:1002180080ED97E00197F1F7A8951197C9F7089530
:00000001FF
