:040000000C943A0022
:100004000C9400000C9400000C9400000C9400006C
:100014000C9400000C9400000C9400000C9400005C
:100024000C9400000C9400000C9467000C940000E5
:100034000C9400000C9400000C9400000C9400003C
:100044000C9400000C9400000C9400000C9400002C
:100054000000E803050406020A0809010100020081
:100064005400020008005600080060025800000016
:10007400F894EE27ECBBF1E0FBBFEBBFE5BF8DE0EE
:10008400A2E0BB27ED938A95E9F780E098E0A0E62B
:10009400ED930197E9F7E0E6F0E0859195910097FB
:1000A40061F0A591B59105901590BF01F0010590FF
:1000B4000D920197E1F7FB01F0CFEFE5EDBFE8E02A
:1000C400EEBFC0E6D2E00C94E5000A92AA93BA937C
:1000D400EA93FA93EFB7EA93E3E8E2BFF3013196C8
:1000E4003F019A9902C0E1E02E268614970411F488
:1000F40020FC01C05BC066247724A89B02C0A8989A
:1001040001C0A89AA0E6B2E0A40DB51DEC91E8BB2D
:1001140022FC26C0E7E0F0E04E165F0624F4F2016C
:1001240031962F011CC04424552421FC05C0E8EC61
:10013400F0E08E1A9F0A04C0F401E853FF4F4F0108
:10014400082C092829F4689421F8E4E6F0E04F012A
:10015400E8EEF3E0E815F90514F4689442D025C0FC
:1001640000240414050424F4F20131972F011DC066
:10017400E7E0F0E02F0121FC05C0E8ECF0E08E1A86
:100184009F0A04C0F401E853FF4F4F01082C0928CB
:1001940029F4689421F8E4E6F0E04F01E8EEF3E096
:1001A400E815F90514F4E8941CD005C086149704E6
:1001B40011F466247724E991EFBFF991E991B9919B
:1001C400A99109901895E3E0E3BFE3E8E2BFE0E01A
:1001D400ECBFE1E0E9BFEFE0E7BBA09AA19A789415
:1001E400FFCF22F8E8EEF3E04F01E89421F80895F8
:00000001FF
