:040000000C94340028
:100004000C9400000C9400000C9400000C9400006C
:100014000C9400000C9400000C9400000C9400005C
:100024000C9400000C9400000C9461000C940000EB
:100034000C9400000C9400000C9400000C9400003C
:100044000C9400000C9400000C9400000C9400002C
:1000540000000905060A01000200540004006002C1
:1000640056000000F894EE27ECBBF1E0FBBFEBBFB9
:10007400E5BF8DE0A2E0BB27ED938A95E9F780E028
:1000840098E0A0E6ED930197E9F7EAE5F0E08591C1
:100094009591009761F0A591B59105901590BF01D8
:1000A400F00105900D920197E1F7FB01F0CFEFE528
:1000B400EDBFE8E0EEBFC0E6D2E00C94AC000A92DB
:1000C400AA93BA93EA93FA93EFB7EA93E3E8E2BF09
:1000D400F30131963F01A89B02C0A89801C0A89AD9
:1000E400E4E0F0E0E615F7052CF5A99B02C0A99819
:1000F40001C0A99A6624772420FE1CC0A0E6B2E0C1
:10010400A40DB51DEC91E8BB21FC0BC0F2013196A6
:100114002F01E4E0F0E0E415F50511F4442455243E
:1001240009C0042C052819F4E4E0F0E02F01F201E1
:1001340031972F019A9902C0E1E02E269B9902C0C3
:10014400E2E02E26E991EFBFF991E991B991A991E5
:1001540009901895E3E0E3BFE3E8E2BFE0E0ECBF19
:10016400E1E0E9BFEFE0E7BBA09AA19A7894FFCF62
:00000001FF
