:0C0000000C9447000C9400000C940000CD
:10000C000C9400000C9400000C9400000C94000064
:10001C000C9400000C9400000C9400000C94000054
:10002C000C9400000C9400000C9400000C94000044
:10003C000C9400000C9400000C9400000C94000034
:10004C000C9400000C9400001027E80364000A00D4
:10005C000100001000011000010080A0C0E07465D8
:10006C006D70657261746F723A0025640000010056
:10007C002D4E414E00494E46000001006F027A00A1
:10008C000000F894EE27ECBBF1E0FBBFEBBFE5BF43
:10009C008DE0A2E0BB27ED938A95E9F780E098E02C
:1000AC00A0E6ED930197E9F7E6E8F0E085919591EC
:1000BC00009761F0A591B59105901590BF01F001E5
:1000CC0005900D920197E1F7FB01F0CFEFE5EDBF45
:1000DC00E8E0EEBFC0E6D2E00C947400EFE0EABBBF
:1000EC00E0E0EBBBE7BBE8BBE4BBE5BBE0ECE1BBB2
:1000FC00E0E0E2BBE3BFE2BFECBFEFBDEEBDEDBDA8
:10010C00ECBDE7BDE6BDEBBDEABDE9BDE8BDE2BDBA
:10011C00E5BDE4BDE3BDE9BFE5BFE4BFEBB9E8E194
:10012C00EAB9E6E8E0BDE0E0E0BDECE0E9B9E0E822
:10013C00E8B9E0E0E0BFE6B9EDB9E6BFA4E10E94A2
:10014C00E8020E94A502AAE6B0E00E94D5020E9435
:10015C00CC004E2E5524E0E6F2E0FA93EA93E6E763
:10016C00F0E0FA93EA93F201662777270E947B036B
:10017C0084E00E9444022896A0E6B2E00E94C602E7
:10018C00A8EEB3E00E946103DCCFFFCF5F9BFECFF4
:10019C00ECB10895BA93AA931A930A93AA81BB81DE
:1001AC0012960E947303309759F1AA81BB81149661
:1001BC000E9473038F01309761F00230E0E01E075C
:1001CC0098F0F80131978F01AA81BB811496ED93B9
:1001DC00FC93AA81BB811296ED91FD913196FE9311
:1001EC00EE933197AC81A083AA81BB810E947303EB
:1001FC00FF232AF0ED91FD913196FE93EE9306C00C
:10020C00AA81BB81EFEFFFEFED93FC93198108817D
:10021C0025960895BA93AA9326970E94800310E01E
:10022C00AC85BD85E0E0F0E0ED93FC93EA89FB89B9
:10023C003196EA8BFB8B3197E4912E2FE03009F449
:10024C0015C1E12FE03039F4253211F411E002C070
:10025C000E9428030AC1E130A9F4253219F40E9446
:10026C00280302C112E040E000E02D3211F401E05D
:10027C00FCC02B3211F44BE2F8C0203211F440E2F6
:10028C00F4C002C0E23039F450E013E0203311F432
:10029C000068EBC003C0E33009F0E7C0203310F076
:1002AC002A3308F007C0AAE05A9F502DE22FE053E2
:1002BC005E0FDBC0E22FE33649F40E942F03E8897E
:1002CC00F989A481AA930E943503CEC0E33741F487
:1002DC000E942F030E943B030E940F031E2F0AC093
:1002EC00E03761F40E942F030E943B030E941B0322
:1002FC001E2F086002600F7730E034C0E43611F036
:10030C00E93611F4046002C0E53731F4E4E5F0E0BD
:10031C00EE83FF8315E00CC0E83511F4086003C0D0
:10032C00E83709F0A1C0EEE5F0E0EE83FF8314E0BE
:10033C0002FF14C00E942F030E944503AB85AA2321
:10034C003AF4EA85FB850E946F03EA87FB874DE24E
:10035C00403011F01F5F01C00B7F04C00E942F03BF
:10036C000E94450300FD11C0151778F407FF08C063
:10037C0002FF04C00B7F242F115001C020E301C0E9
:10038C0020E20E9428035150EFCF312F01FF17C0FC
:10039C003030A1F003FF06C0EE81FF812591EE8382
:1003AC00FF8305C0AE81BF812D91AE83BF830E94B8
:1003BC002803503009F051503150EACF4BC020E3A4
:1003CC00EE81FF810E947703E887F987EE81FF8138
:1003DC003296EE83FF83E885F985AA85BB85AE1737
:1003EC00BF0750F02F5FA885B985EA85FB85EA1B0E
:1003FC00FB0BEA87FB87EFCF2A3328F003FF02C001
:10040C00295F01C0295D04FD1AC0213320F4A885A1
:10041C00B985119709F409C0531710F000FF01C0FA
:10042C0013C020E207FF0BC020E3006102FF07C0EE
:10043C000B7F4A930E943503503009F051500E94B3
:10044C002803503009F051503150A885B9851297C6
:10045C0008F0B5CF00FF08C0503031F05150E0E249
:10046C00EA930E943503F8CF10E0E0CEAC85BD8551
:10047C000E9473030E94870364960895FF92F82EDE
:10048C0026970E9482030E944D03309719F4EFEFD8
:10049C00FFEF23C0DE0116960E946B038D010E94B4
:1004AC004D03EE83FF83E0E0E887E987DE011A96CF
:1004BC000E946B030E947303FA93EA931A930A93B4
:1004CC00E0EDF0E0FA93EA93DE011A96A3DE9F01C9
:1004DC00AE81BF81E0E0EC93F9010E9489032A967A
:1004EC00FF900895AA93E8B3EF70AE2FE881E07FF8
:1004FC00EA2BE8BB81E08A95F1F7C29A82E08A95F3
:10050C00F1F7C29882E08A95F1F781C0AA93A8818D
:10051C00E9DFE881E295E883A881E4DF81E18A954F
:10052C00F1F775C0AA93E881F0E0EA59FF4FE49126
:10053C00A981AE0FEBDF7980688022960895A2E046
:10054C000E945403ACE0E2DFA1E00E945403E0E01F
:10055C006E2E7E2E0895AA93A881AA3011F07914DC
:10056C0048F0E0E0EA936394A62DDCDFA881AA3082
:10057C0009F44DC07394C09AA881C8DFC09847C0D5
:10058C00BA93AA931A93A981BA81ED91A983BA83DC
:10059C001E2FE03019F0A12FDEDFF5CF10C0BA937B
:1005AC00AA931A93E981FA813196E983FA833197F8
:1005BC00E4911E2FE03019F0A12FCDDFF3CF18817D
:1005CC0023960895AA93E7B3E06FE7BBBA9AB89A5B
:1005DC00B99AC298C098C1989880A4E1B0E00E94E2
:1005EC0061030E945A030E945A030E945A03A0E21C
:1005FC0079DF81E28A95F1F7A4E288DFA9E086DF52
:10060C00A0E284DFACE082DFA6E080DF98DF2196F9
:10061C000895BA93AA93A991B991EE27FF276D91EA
:10062C00662311F03196FBCF0895BA93AA93AA27AB
:10063C00BB27E991F9910590002011F01196FBCFA1
:10064C00FD0108952A93AD85BE85EF85F88909953E
:10065C000895E889F9893497E88BF98B0895AD856D
:10066C00BE85EF85F88909950895A889B9891496EE
:10067C000E947303EE83FF83AE81BF810895A88926
:10068C00B98914960E947303EA87FB870895DE01EB
:10069C001C960E946B030E94730308950E948C02A7
:1006AC00A3E0B0E00C946103A0E30E94780281E225
:1006BC008A95F1F70895109639F08AEF90E001973A
:1006CC00F1F7A8951197C9F708950024AF0DB01D47
:1006DC000895F195E195F0400895ED91FC911197F5
:1006EC0008950590F491E02D08957A936A93FA9306
:1006FC00EA9308955A934A933A932A931A930A9336
:10070C0008955D814C813B812A811981088108956E
:00000001FF
